:020000040800F2
:10000000D807002089010008E1060008450400081F
:10001000DD06000839020008031200080000000095
:10002000000000000000000000000000B907000808
:100030003D0200080000000075070008910B000851
:10004000A3010008A3010008A3010008A301000800
:10005000A3010008A3010008A3010008A3010008F0
:10006000A3010008A3010008A3010008A3010008E0
:10007000A3010008A3010008A3010008A3010008D0
:10008000A3010008A3010008A3010008A3010008C0
:10009000A3010008A3010008A3010008A3010008B0
:1000A000A30100086D0C0008A3010008A3010008CB
:1000B000A3010008A3010008A3010008A301000890
:1000C000A3010008A3010008A3010008A301000880
:1000D000A30100081D110008A3010008A3010008E6
:1000E000A3010008A3010008A301000800F002F822
:1000F00000F03AF80AA090E8000C82448344AAF188
:100100000107DA4501D100F02FF8AFF2090EBAE885
:100110000F0013F0010F18BFFB1A43F0010318473B
:10012000F01B0000101C0000103A24BF78C878C1F2
:10013000FAD8520724BF30C830C144BF04680C60ED
:10014000704700000023002400250026103A28BF35
:1001500078C1FBD8520728BF30C148BF0B60704739
:100160001FB51FBD10B510BD00F033F81146FFF7E5
:10017000F7FF01F09FF800F051F803B4FFF7F2FF2A
:1001800003BC01F040F800000948804709480047D7
:10019000FEE7FEE7FEE7FEE7FEE7FEE7FEE7FEE737
:1001A000FEE7FEE704480549054A064B7047000094
:1001B000950B0008ED000008D8010020D8070020AA
:1001C000D8030020D803002070477047704770475D
:1001D0007047754600F02CF8AE4605006946534658
:1001E00020F00700854618B020B5FFF7DBFFBDE81B
:1001F00020404FF000064FF000074FF000084FF08E
:10020000000B21F00701AC46ACE8C009ACE8C0091E
:10021000ACE8C009ACE8C0098D46704710B504468B
:10022000AFF300802046BDE81040FFF7A6BF0000F6
:10023000004870477401002000BFFEE770472DE9B9
:10024000F04102460025002600200023002400275C
:1002500091F803C00CF00F0591F803C00CF0100CDE
:10026000BCF1000F03D091F802C04CEA050591F8EB
:1002700000C0BCF1000F31D0146800202BE04FF01B
:10028000010C0CFA00F3B1F800C00CEA03069E4220
:1002900020D183004FF00F0C0CFA03F7BC4305FA92
:1002A00003FC4CEA040491F803C0BCF1280F06D10A
:1002B0004FF0010C0CFA00FCC2F814C00AE091F8EF
:1002C00003C0BCF1480F05D14FF0010C0CFA00FC43
:1002D000C2F810C0401C0828D1D31460B1F800C087
:1002E000BCF1FF0F34DD546800202EE000F1080C53
:1002F0004FF0010808FA0CF3B1F800C00CEA03064D
:100300009E4221D183004FF00F0C0CFA03F7BC433F
:1003100005FA03FC4CEA040491F803C0BCF1280F71
:1003200005D100F1080C08FA0CF8C2F8148091F815
:1003300003C0BCF1480F07D100F1080C4FF00108D1
:1003400008FA0CF8C2F81080401C0828CED354607C
:10035000BDE8F08108B50121102000F01DFAC02091
:10036000ADF8000010208DF8030003208DF8020086
:1003700069460448FFF763FFC021024800F051F8C6
:1003800008BD00000010014008B50121082000F060
:1003900003FA47F66060ADF8000048208DF80300CE
:1003A00069460248FFF74BFF08BD0000000C014002
:1003B00008B50121102000F0EFF90320ADF800008E
:1003C00010208DF8030003208DF8020069460F48C5
:1003D000FFF735FF03210D4800F023F80C20ADF89E
:1003E000000069460948FFF72AFF0C21074800F082
:1003F00018F83020ADF8000069460448FFF71FFFE9
:100400003021024800F00DF808BD00000010014046
:100410000246002093680B400BB1012000E0002051
:100420007047416170470161704701461022088C96
:1004300000EA0203934202D10120034670470020E4
:100440000346FBE700BFFEE701460020012904D078
:10045000022909D0032915D10DE0154801220274A3
:100460009207C0F811200DE0124802220274124ACD
:10047000C0F8112006E0114803220274104AC0F8A7
:10048000112000BF00BF002202704FF46F72A0F86D
:10049000012000228281012242750022C0F803203F
:1004A000C0F80720012282730022C273C272704713
:1004B000680000207E00002000040040940000201E
:1004C0000008004010B520215748FFF7A1FF48B3AE
:1004D00040215548FFF79CFF20B34FF4005152488C
:1004E000FFF796FFF0B14FF480414F48FFF790FFC0
:1004F000C0B14FF400714C48FFF78AFF90B14FF440
:1005000080614948FFF784FF60B14FF400614648BD
:10051000FFF77EFF30B14FF480514348FFF778FF7B
:1005200000287FD10F2000F093FE20213E48FFF7E6
:100530006FFF40B900BF20213B48FFF769FF00284B
:10054000F9D0012010BD40213748FFF761FF40B9C5
:1005500000BF40213448FFF75BFF0028F9D002209C
:10056000F0E74FF400513048FFF752FF48B900BFA1
:100570004FF400512C48FFF74BFF0028F8D0032020
:10058000E0E74FF480412848FFF742FF48B900BF39
:100590004FF480412448FFF73BFF0028F8D00420A7
:1005A000D0E74FF400712048FFF732FF48B900BF91
:1005B0004FF400711C48FFF72BFF0028F8D00520EE
:1005C000C0E74FF480611848FFF722FF48B900BF29
:1005D0004FF480611448FFF71BFF0028F8D0062075
:1005E000B0E74FF400611048FFF712FF50B900BFA9
:1005F0004FF400610C48FFF70BFF0028F8D00720EC
:10060000A0E70FE04FF480510748FFF701FF48B91A
:1006100000BF4FF480510448FFF7FAFE0028F8D0DD
:1006200008208FE700208DE7000C014010B500F096
:10063000EDFD00F056F8FFF7BBFEFFF7A5FEFFF754
:1006400089FE0120FFF700FF0220FFF7FDFE0320D7
:10065000FFF7FAFE1C48417D4FF0804000F058F94A
:100660001A48417D1A4800F053F91A48417D1A484A
:1006700000F04EF9144801784FF0804000F012F974
:1006800012480178124800F00DF91248017812481A
:1006900000F008F94FF46F71642000F077FB4FF41D
:1006A0006F71642000F0C2FB4FF46F71642000F0A2
:1006B0000DFC4FF47A7000F0CBFD48214FF47A70B6
:1006C00000F0A8FA10BD0000680000207E000020A5
:1006D00000040040940000200008004000BFFEE736
:1006E000704710B54FF4A06000F03AF810BD00005C
:1006F00070B5002100230F22C47804B3154C246880
:1007000004F4E064C4F5E064210AC1F10403CA40C2
:10071000447804FA03F184781440214309010E4C13
:100720000678A155047804F01F050124AC40057833
:100730006D11AD0005F1E025C5F8004109E0047830
:1007400004F01F050124AC40044D0678761145F8ED
:10075000264070BD0CED00E000E400E080E100E028
:1007600002490143024A1160704700000000FA0587
:100770000CED00E07047000029B1064AD26902433F
:10078000044BDA6104E0034AD2698243014BDA6127
:10079000704700000010024029B1064A92690243E6
:1007A000044B9A6104E0034A92698243014B9A61C7
:1007B0007047000000100240704710B500F002F8CA
:1007C00010BD00000CB50020019000903348006877
:1007D00040F480303149086000BF3048006800F4C0
:1007E000003000900198401C0190009818B90198C1
:1007F000B0F5A06FF1D12948006800F4003010B1C5
:100800000120009001E0002000900098012843D1D1
:100810002348006840F0100021490860084600683D
:1008200020F0030008600846006840F002000860FD
:100830001A484068194948600846406848600846B8
:10084000406840F4806048600846406820F47C10AE
:1008500048600846406840F4E81048600846006870
:1008600040F08070086000BF0C48006800F0007025
:100870000028F9D00948406820F003000749486083
:100880000846406840F00200486000BF03484068E6
:1008900000F00C000828F9D10CBD00000010024047
:1008A00000200240B1B1012929D1B0F1804F02D11D
:1008B0000122144B1A60144A904203D10122114BB9
:1008C00008331A60114A904203D101220D4B1033B4
:1008D0001A6014E0B0F1804F02D10022094B1A6077
:1008E000094A904203D10022064B08331A60074A96
:1008F000904203D10022034B10331A6000BF00BFA7
:1009000070470000840122420004004000080040BB
:1009100070B504460D460026012D00D10126BEB15A
:10092000012E2BD1B4F1804F03D101211448FFF7E0
:1009300078FD1448844203D104211148FFF771FD6A
:100940001148844203D110210D48FFF76AFD15E0DC
:10095000B4F1804F03D101210948FFF764FD094834
:10096000844203D104210648FFF75DFD0648844216
:1009700003D110210248FFF756FD00BF00BF70BD34
:100980000010014000040040000800404A1E02859B
:100990007047000070B504460E4631462046FFF70A
:1009A00081FF01220421204600F055FBB4F1804F65
:1009B00004D12046FFF739FD104988811048844250
:1009C00004D12046FFF731FD0E4988810E4884424C
:1009D00004D12046FFF729FD0C498881002509E054
:1009E0000B4830F815102046FFF7D0FF012000F02B
:1009F0002FFC6D1CB5F5D87FF2DB70BD68000020C0
:100A0000000400407E000020000800409400002008
:100A10005016000810B52C48807B002853D02B4876
:100A2000807B00284FD02A482A490968405C30B9A9
:100A3000274928480068401C085C002840D0244909
:100A4000244A1268885C00F0BDFC1F49C1F803000D
:100A50001F49204A1268885C00F0B4FC1B49C1F8A9
:100A600003001B491B4A1268885C00F0ABFC164966
:100A7000C1F80700164A17490968491C505C00F084
:100A8000A1FC1249C1F8070000214FF08040FFF798
:100A900081FF00211048FFF77DFF00200A49C8723E
:100AA000C8728873094988730C49088001210C4871
:100AB00000F04CFA07480068801C0649086002E014
:100AC00000200449086010BD680000207E0000205E
:100AD000040000204400002000040040000000202A
:100AE000002C014070B50446002509E0174830F895
:100AF00015102046FFF74AFF012000F0A9FB6D1CEE
:100B0000B5F5D87FF2DB208C114908402084002203
:100B10000421204600F09FFAB4F1804F04D1204612
:100B2000FFF783FC0B4988810B48844204D120469F
:100B3000FFF77BFC094988810948844204D120469B
:100B4000FFF773FC0749888170BD0000B0190008E9
:100B5000E0FF0F0068000020000400407E0000203D
:100B60000008004094000020042808D14FF0E02144
:100B7000096941F004014FF0E022116107E04FF0F4
:100B8000E021096921F004014FF0E0221161704772
:100B90007047000010B51348006840F0010011498B
:100BA000086008464068104908400E4948600846F9
:100BB00000680E4908400B4908600846006820F4A8
:100BC000802008600846406820F4FE0048604FF42A
:100BD0001F008860FFF7F1FD4FF0006004490860D6
:100BE00010BD0000001002400000FFF8FFFFF6FEFD
:100BF00008ED00E008B519208DF8000002208DF8FE
:100C0000010001208DF802008DF803006846FFF70F
:100C10006FFD08BD3EB505460C460121C802FFF731
:100C2000BBFD681E80B2ADF80400601E80B2ADF856
:100C300000000020ADF80600ADF802008DF80800B5
:100C40006946094800F018FA0121074800F078F9D0
:100C500001221146044800F096F9FFF7CBFF01216D
:100C6000014800F073F93EBD002C014070B5012130
:100C7000354800F077F9002865D00121324800F0AE
:100C800062F93249D1F80700314900F0E3FB04462C
:100C90003048008800F096FB0546214600F05EFBD8
:100CA0001ED14FF08040FFF71DFF2848C07A10B9D1
:100CB00001202649C8732548C07A012810D123494C
:100CC00088730020C872244AD2F807101F4AD2F84D
:100CD000070000F08BFC03D200211B4800F036F91E
:100CE0001D49D1F807001A4900F0B4FB0446194821
:100CF000008800F067FB0546214600F02FFB1DD160
:100D00001648FFF7EFFE1448C07A10B901201249C7
:100D1000C8731148C07A012810D10F498873002088
:100D2000C8720A4AD2F807100B4AD2F8070000F03E
:100D30005DFC03D20021044800F008F90548008852
:100D4000401C0449088070BD002C01406800002050
:100D500000007A44000000207E00002000040040D3
:100D600008B501210420FFF717FD0220ADF80000AF
:100D700018208DF8030003208DF802006946024810
:100D8000FFF75DFA08BD00000008014030B587B0EC
:100D900004460D46FFF7E4FF01210846FFF7ECFC8F
:100DA000601E80B2ADF80400681E80B2ADF800008D
:100DB0000020ADF80600ADF8020069464FF0804013
:100DC00000F05AF96020ADF80C000020ADF80E00DC
:100DD000ADF81400204604EBD071C1F34F01ADF81B
:100DE000121003A94FF0804000F0D6F80821C80681
:100DF00000F024F90121880700F0A8F807B030BD01
:100E000008B501210420FFF7C7FC8020ADF80000E1
:100E100018208DF8030003208DF80200694602486F
:100E2000FFF70DFA08BD00000008014030B587B09B
:100E300004460D46FFF7E4FF01210220FFF79CFC6A
:100E4000601E80B2ADF80400681E80B2ADF80000EC
:100E50000020ADF80600ADF8020069460F4800F02A
:100E60000BF96020ADF80C000020ADF80E00ADF8D5
:100E70001400204604EBD071C1F34F01ADF81210FD
:100E800003A9064800F088F80821044800F0D6F8C5
:100E90000121024800F05AF807B030BD00040040BC
:100EA00008B501210820FFF777FC8020ADF800008D
:100EB00018208DF8030003208DF8020069460248CF
:100EC000FFF7BDF908BD0000000C014030B587B048
:100ED00004460D46FFF7E4FF01210420FFF74CFC18
:100EE000601E80B2ADF80400681E80B2ADF800004C
:100EF0000020ADF80600ADF8020069460F4800F08A
:100F0000BBF86020ADF80C000020ADF80E00ADF885
:100F10001400204604EBD071C1F34F01ADF812105C
:100F200003A9064800F038F80821044800F086F8C4
:100F30000121024800F00AF807B030BD0008004067
:100F4000CA4302827047CA430282704721B10288B5
:100F500042F00102028004E002884FF6FE731A405C
:100F60000280704730B50246002000230024158A15
:100F700005EA0103958905EA010413B10CB10120CA
:100F800000E0002030BD1AB183890B43838102E069
:100F900083898B438381704770B50024002200232E
:100FA000058C4FF6EF7635400584028C8388048BE0
:100FB00048F6FF752C404FF6FF452C400D884FF644
:100FC000FF7606EA05252C434FF6DF752A400D898A
:100FD00006EA05152A434D8806EA05152A43154DEC
:100FE000A84202D0144DA8421DD14FF67F752A4069
:100FF0004D894FF6FF7606EA05152A434FF6BF7571
:101000002A408D8806EA05152A434FF6FF352B4006
:101010004FF2FF752B408D8906EA85052B43CD895C
:1010200006EA85052B4383800483CD8805870284E7
:1010300070BD0000002C0140003401400A46002130
:10104000018B4FF2FF7319404FF6FF7303EA02233F
:1010500019430183704710B5012A04D1038C012480
:101060008C40234303842AB9048C4FF6FE738B40D3
:101070001C40048410BD0000002202881D4B9842D1
:101080000ED01D4B98420BD0B0F1804F08D01B4BB7
:10109000984205D01A4B984202D01A4B984204D17C
:1010A0004FF68F731A404B881A43174B984207D05C
:1010B000164B984204D04FF6FF431A40CB881A4390
:1010C00002808B8883850B8803850A4B98420BD05E
:1010D000094B984208D00E4B984205D00D4B9842D0
:1010E00002D00D4B984201D10B7A038601238382F3
:1010F00070470000002C0140003401400004004013
:1011000000080040000C00400010004000140040A7
:1011100000400140004401400048014010B540F249
:1011200025511D4800F03EF810B31B4800F064F84C
:10113000C4B21A48008800F40040C8B917480088B3
:1011400000F4804060B10A2C03D0002013490880CD
:1011500020E01248008840F400401049088019E05F
:101160000D2C06D10D48008840F480400B490880C2
:1011700010E00A480088C0F30D0009490C540748E4
:101180000088401C0549088008460088C72801DD02
:101190000020088010BD00000038014064000020DD
:1011A000AA00002070B5024600240023002500207C
:1011B00040F66A16B14200D100BFC1F3421501F0FA
:1011C0001F03012606FA03F3012D02D1968933404D
:1011D00006E0022D02D1168A334001E0968A3340A0
:1011E0000C12012606FA04F41688344013B10CB12F
:1011F000012000E0002070BD01468888C0F308008F
:10120000704700BFFEE7014600BF704710B56FF0A2
:101210000400FFF7A9FC0A4800680A49B0FBF1F096
:10122000094908700846007800EB4001C1EBC01086
:101230004FF6FF7101EAC0000449088010BD0000AC
:101240004800002000127A005C0000205E000020B0
:101250000146114A12884A434FF0E0235A610022A6
:101260009A611A46126942F001021A6100BF4FF0FA
:10127000E022106900F001021AB100F48032002A65
:10128000F5D04FF0E022126922F001024FF0E02386
:101290001A6100229A6170475E00002030B5044652
:1012A000002504E04FF47A70FFF7D2FF6D1CA542D1
:1012B000F8DB30BDFFF7BAF900211C48FFF746FE06
:1012C00033E0FFF7FFF81A4908800846008810B19C
:1012D000012804D100E002E0FFF79CFB00BF00BF43
:1012E0001448C07B08B31448C07BF0B100210F48FC
:1012F000FFF72CFE0220FFF7D1FF01218807FFF73F
:1013000049FB01210D48FFF745FB01200949C8723F
:101310000949C87200200749C8730749C8730849BA
:10132000088001210148FFF711FECAE7002C0140A7
:1013300002000020680000207E0000200004004021
:1013400000000020401058BFC0F14040491058BF75
:10135000C1F140418142EFF30080704750EA010C37
:1013600000F113801CF5000F58BFBCF5000F01D42D
:101370008842704707D710F5000F58BF11F5000FCE
:1013800015D488427047894270471CF5000F04D578
:10139000BCF5000FF7D5814270474FF0807C1CEB05
:1013A000400F38BF1CEB410F01D28142704710B58E
:1013B00000F0D1F8922449004FF000504FF08051D6
:1013C000FFF7C0BFB0FA80F310FA03F2C3F19D0338
:1013D0000AD0D90501EB1220530638BF704700F13F
:1013E000010008BF20F001007047000050EA010C26
:1013F00000F113801CF5000F58BFBCF5000F01D49D
:101400008842704707D710F5000F58BF11F5000F3D
:1014100015D488427047894270471CF5000F04D5E7
:10142000BCF5000FF7D5814270474FF0807C1CEB74
:10143000400F38BF1CEB410F01D28142704710B5FD
:1014400000F089F8922449004FF000504FF080518D
:10145000FFF778BF4FF47F0C1CEAD0121EBF1CEAC6
:10146000D11392EA0C0F93EA0C0F00F0478090EA38
:10147000010F48BF42F480724FF0004C4CEA00204C
:101480004CEA012102EB0302A0FB0113A2F50002CA
:10149000002918BF43F001035B0028BF4FEA330364
:1014A00042EB22425FEA132C4CEBC2502EBFBCEB46
:1014B000436FB2F57C0F70474FEA036CBCF1004FED
:1014C00008BF20F00100B2F57C0F38BF70470BD584
:1014D00082F0FF0212F5803FC8BF704700F1C040A4
:1014E000D8BF00F00040704700F5000C5FEA4C0CDC
:1014F00048BF7047B0F1C04000F073B890EA010FE8
:101500000CEAD11348BF42F48072624538BF63458C
:1015100004D280EA010000F00040704710B500F0EE
:101520001AF800BF8900013E00F007B800F009B8C2
:101530005FEA410C5FEA1C6C08D080EA010000F011
:1015400050B85FEA400C5FEA1C6CF6D14FF00040E7
:10155000A0F5800070470EF1020E2EF0030E5EF82B
:10156000044B244204D44FEA4102B2F17F4F11D818
:101570004FEA4003B3F17F4F0CD80ED14FEAD07C35
:10158000B2F17F4F0CEB4C0C0CF1020C08BF4CEB92
:10159000D17C04E04FF0080C01E04FEAD17C0CEB69
:1015A0004C0324FA03F404F00704B4F1040C06D24B
:1015B0000EEB840CBDE810404CF0010C6047DFE8F6
:1015C0000CF0070802024FF00040A0F5800010BDAB
:1015D0000846420018BFD2F1807288BF00F0004078
:1015E00010BDFF2141EAD050C005704751EA000C00
:1015F00000F113801CF5000F58BFBCF5000F01D49B
:101600008142704707D711F5000F58BF10F5000F42
:1016100015D481427047894270471CF5000F04D5EC
:10162000BCF5000FF7D5884270474FF0807C1CEB6B
:10163000410F38BF1CEB400F01D28842704780EA4F
:10164000010081EA000180EA0100FFF7F8BEB00165
:10165000F801F701F701F601F501F501F401F301D5
:10166000F301F201F101F101F001EF01EE01EE01F0
:10167000ED01EC01EB01EA01EA01E901E801E70112
:10168000E601E501E401E301E301E201E101E0013A
:10169000DF01DE01DD01DC01DB01DA01D901D80166
:1016A000D601D501D401D301D201D101D001CF019E
:1016B000CD01CC01CB01CA01C901C701C601C501D9
:1016C000C301C201C101BF01BE01BD01BB01BA011D
:1016D000B801B701B601B401B301B101B001AE0167
:1016E000AD01AB01AA01A801A601A501A301A201B8
:1016F000A0019E019D019B01990198019601940111
:10170000920191018F018D018B018A01880186016F
:101710008401820181017F017D017B0179017701D3
:1017200075017301720170016E016C016A0168013B
:1017300066016401620160015E015C015A015801A9
:1017400056015401520150014E014C014A01480119
:1017500046014401420140013E013C013A01380189
:1017600036013401320130012E012C012A012801F9
:1017700026012401220121011F011D011B01190164
:1017800017011501130111010F010D010C010A01CF
:1017900008010601040102010101FF00FD00FB0038
:1017A000F900F800F600F400F200F100EF00ED009F
:1017B000EC00EA00E800E700E500E400E200E000F9
:1017C000DF00DD00DC00DA00D900D700D600D4004D
:1017D000D300D100D000CE00CD00CC00CA00C9009B
:1017E000C800C600C500C400C200C100C000BF00E0
:1017F000BD00BC00BB00BA00B900B700B600B50020
:10180000B400B300B200B100B000AF00AE00AD0054
:10181000AC00AB00AA00A900A800A700A600A50084
:10182000A400A300A200A100A000A0009F009E00B1
:101830009D009C009C009B009A00990098009800D5
:1018400097009600960095009400940093009200F3
:1018500092009100900090008F008F008E008D000C
:101860008D008C008C008B008B008A008A00890020
:101870008900880088008700870086008600850030
:10188000850084008400840083008300820082003D
:101890008200810081008100800080007F007F0045
:1018A0007F007E007E007E007D007D007D007D004B
:1018B0007C007C007C007B007B007B007B007A004E
:1018C0007A007A007A00790079007900790078004E
:1018D000780078007800780077007700770077004C
:1018E0007700760076007600760076007500750049
:1018F0007500750075007500750074007400740043
:10190000740074007400730073007300730073003C
:101910007300730073007200720072007200720034
:10192000720072007200720071007100710071002B
:101930007100710071007100710071007100700020
:101940007000700070007000700070007000700017
:10195000700070007000700070006F006F006F000A
:101960006F006F006F006F006F006F006F006F00FF
:101970006F006F006F006F006F006F006F006E00F0
:101980006E006E006E006E006E006E006E006E00E7
:101990006E006E006E006E006E006E006E006E00D7
:1019A0006E006E006E006E006E006E006E006E00C7
:1019B0006E006E006E006E006E006E006E006E00B7
:1019C0006E006E006E006E006E006E006E006E00A7
:1019D0006E006E006E006E006E006E006E006E0097
:1019E0006E006F006F006F006F006F006F006F0080
:1019F0006F006F006F006F006F006F006F006F006F
:101A00006F006F006F007000700070007000700059
:101A10007000700070007000700070007000700046
:101A2000700071007100710071007100710071002F
:101A3000710071007100710072007200720072001A
:101A40007200720072007200720073007300730003
:101A500073007300730073007300740074007400EB
:101A600074007400740075007500750075007500D1
:101A700075007500760076007600760076007700B7
:101A8000770077007700770078007800780078009A
:101A9000780079007900790079007A007A007A007C
:101AA0007A007B007B007B007B007C007C007C005C
:101AB0007D007D007D007D007E007E007E007F0039
:101AC0007F007F0080008000810081008100820013
:101AD00082008200830083008400840084008500EB
:101AE00085008600860087008700880088008900BE
:101AF00089008A008A008B008B008C008C008D008E
:101B00008D008E008F008F00900090009100920059
:101B10009200930094009400950096009600970020
:101B20009800980099009A009B009C009C009D00E2
:101B30009E009F00A000A000A100A200A300A4009E
:101B4000A500A600A700A800A900AA00AB00AC0051
:101B5000AD00AE00AF00B000B100B200B300B40001
:101B6000B500B600B700B900BA00BB00BC00BD00AC
:101B7000BF00C000C100C200C400C500C600C8004C
:101B8000C900CA00CC00CD00CE00D000D100D300E7
:101B9000D400D600D700D900DA00DC00DD00DF0079
:101BA000E000E200E400E500E700E800EA00EC0005
:101BB000ED00EF00F100F200F400F600F800F9008B
:101BC000FB00FD00FF000101020104010601080104
:101BD0000A010C010D010F0111011301150117017B
:101BE00019011B011D011F012101220124012601F0
:101BF00028012A012C012E01300132013401360165
:101C000038013A013C013E014001420144014601D4
:101C100048014A014C014E01500152015401560144
:101C200058015A015C015E016001620164016601B4
:101C300068016A016C016E01700172017301750126
:101C4000770179017B017D017F018101820184019E
:101C5000860188018A018B018D018F01910192011A
:101C600094019601980199019B019D019E01A0019B
:101C7000A201A301A501A601A801AA01AB01AD0122
:101C8000AE01B001B101B301B401B601B701B801B1
:101C9000BA01BB01BD01BE01BF01C101C201C30147
:101CA000C501C601C701C901CA01CB01CC01CD01E3
:101CB000CF01D001D101D201D301D401D501D60188
:101CC000D801D901DA01DB01DC01DD01DE01DF0130
:101CD000E001E101E201E301E301E401E501E601E4
:101CE000E701E801E901EA01EA01EB01EC01ED019C
:101CF000EE01EE01EF01F001F101F101F201F3015A
:101D0000F301F401F501F501F601F701F701F8011E
:101D1000301D0008000000206800000028010008B5
:101D2000981D0008680000207007000044010008AA
:101D300000000000090C04070A040B060000000064
:101D40000000000000000000000000000000000093
:101D50000000000000000000000000000000000083
:101D60000000000000000000000000000000000073
:101D7000000000000000000000A24A040000000073
:101D8000000000000102030406070809000000002B
:081D900000000000000000004B
:04000005080000ED02
:00000001FF
